:10000000F8FF03209D220100B1610100B7610100EA
:10001000C3610100C9610100CF610100000000005F
:100020000000000000000000000000007FD400007D
:10003000BD610100000000007FD400005D4B0100A5
:100040007FD400007FD400007FD400007FD4000064
:100050007FD400007FD400007FD400007FD4000054
:100060007FD400007FD400007FD400007FD4000044
:100070007FD400007FD400007FD400007FD4000034
:100080007FD400007FD400007FD400007FD4000024
:100090007FD400007FD400007FD400007FD4000014
:1000A0007FD400007FD400007FD400007FD4000004
:1000B0007FD400007FD400007FD400007FD40000F4
:1000C0007FD400007FD400007FD400007FD40000E4
:1000D0007FD400007FD400007FD400007FD40000D4
:1000E0007FD400007FD4000000000000000000006A
:1000F000000000007FD40000895B01009D5B0100CF
:10010000B15B0100C55B0100D95B0100ED5B010043
:10011000015C0100155C0100295C01003D5C0100EF
:10012000515C0100655C0100795C01008D5C01009F
:10013000A15C0100B55C01007FD400007FD4000009
:100140007FD400007FD400007FD400007FD4000063
:100150007FD400007FD400000000000000000000F9
:10016000000000000000000000000000000000008F
:10017000000000000000000000000000000000007F
:100180007FD400007FD400007FD400007FD4000023
:10019000000000007FD400007FD400007FD4000066
:1001A0007FD400007FD400007FD400007FD4000003
:1001B0007FD400007FD400007FD400007FD40000F3
:1001C0007FD400007FD400007FD400007FD40000E3
:1001D0007FD400007FD400007FD400007FD40000D3
:1001E0007FD400007FD400007FD400007FD40000C3
:1001F0007FD400007FD400007FD400007FD40000B3
:100200007FD4000000000000000000007FD4000048
:100210007FD400007FD400007FD400007FD4000092
:100220007FD400007FD400007FD400007FD4000082
:100230007FD400007FD400007FD400007FD4000072
:100240007FD400007FD400007FD400007FD4000062
:100250007FD400007FD400007FD4000085590100C6
:10026000F8B500BFF8BC08BC9E467047A53F01002A
:10027000F8B500BFF8BC08BC9E467047813F01003E
:10028000FCC000201C00000000000000DAC00020BC
:100290000200000000000000000000200C00000030
:1002A00000000000E4C10020010000000100000087
:1002B0004100000098C10020040000000000000080
:1002C0009CC100200400000000000000A0C100202C
:1002D0000400000000000000A4C100200400000091
:1002E00000000000A8C10020040000000000000081
:1002F000ACC100200400000000000000DBC10020B1
:10030000010000000000000096C100200100000074
:1003100000000000B0C10020040000000000000048
:10032000B4C10020040000000000000097C10020BC
:1003300001000000000000000C0000208C03000001
:1003400000000000A4BD00205800000001000000D3
:100350000000FF0F15E6000000104710C5830000E5
:10036000481097105988000098107F11A99A000032
:1003700000EF2FEFD1A3000000F047F1ED8C00005B
:1003800048F15FF18191000060F18FF31596000054
:1003900090F31FF43D9F000020F437F665A800009D
:1003A00038F667F6F9AC0000146C0020000A000073
:1003B000000000008DC100200100000000000000CE
:1003C000B4AB00209001000001000000010000001B
:1003D000011000EE010B00C3414D44CE496E737411
:1003E000696E6374204D49323130CD3130322D4445
:1003F00036373330352D3043C27878CE3030303018
:1004000030303030303030303030C22D2DD53131B9
:10041000332D414D44443637333035304378782ED0
:10042000303034C100000000000000B200000000C5
:1004300000000000000000000000000000000000BC
:10044000000000000000000000000000C102FB7A74
:10045000C8780E000000000000000000000000004E
:10046000000000000000000000000000000000008C
:10047000000000000000000000000000000000007C
:10048000000000000000000000000000000000006C
:10049000000000000000000000000000000000005C
:1004A000000000000000000000000000000000004C
:1004B000000000000000000000000000000000003C
:1004C000000000000000000000000000000000002C
:1004D000000000000000000000000000000000001C
:1004E000000000000000000000000000000000000C
:1004F00000000000000000000000000000000000FC
:1005000000000000000000000000000000000000EB
:1005100000000000000000000000000000000000DB
:1005200000000000000000000000000000000000CB
:1005300000000000000000000000000000000000BB
:10054000000000000000000000000000C0820BD48A
:10055000DF780E0039213B91640C001098030020D5
:100560006010000000000000F813002000020000EE
:1005700000000000F815002000040000000000004A
:10058000ECBE002048000000010000000200000056
:1005900000000000000000C1C1000000010000C117
:1005A000C100007D0106001101090213A1130224FC
:1005B00001E01D1AA1001E1B01291E1D012C1E1E7B
:1005C00001721E2101841EA301C71EC1C1000000CB
:1005D000000000CFF4B900209000000001000000EE
:1005E0002100210084048404840484048404840499
:1005F0008404840421042100210021002100210021
:10060000420042004A0542004200420042004200CD
:1006100042004200420042004200420042004200CA
:1006200042004200420042004200420042004200BA
:1006300042004200420042004200420042004200AA
:10064000420042004200420042004200420042009A
:10065000420042004200420042004200420042008A
:10066000420042004200420042004200420042007A
:10067000C4B30020200100000100000000000000C1
:1006800000000000B9090100B9090100B909010021
:10069000B9090100B9090100B9090100B90901004E
:1006A000B9090100FD3A010000000000000000004F
:1006B000000000000000000000000000000000003A
:1006C00000000000413B01000000000000000000AD
:1006D000000000000000000000000000000000001A
:1006E000000000000000000000000000000000000A
:1006F00000000000000000000000000000000000FA
:1007000000000000000000000000000000000000E9
:1007100000000000000000000000000000000000D9
:1007200000000000000000000000000000000000C9
:1007300000000000000000000000000000000000B9
:1007400000000000000000000000000000000000A9
:100750000000000000000000000000000000000099
:100760000000000000000000000000000000000089
:100770000000000000000000000000000000000079
:100780000000000000000000000000000000000069
:1007900000000000000000000000000034BF002046
:1007A00048000000010000000001000102030405F0
:1007B0000607000001000102000100000100010025
:1007C0000000010000000100000001000000010025
:1007D0000000010000000100000001000000010015
:1007E00000000100000001000100010203040500F7
:1007F000FCBD0020500000000100000011010103B9
:10080000000003000000050007000000C1C1000057
:100810000000005902000000000000000000C1C1FB
:100820000000007C020000000000000000C1C100C8
:100830000000007C0100000000000000000000003B
:10084000000000C1C10000000000007D54B900207C
:10085000A0000000010000004200420042004200EF
:100860004200420042004200420042004200420078
:100870004200420042004200420042004200420068
:100880004200420042004200420042004200420058
:100890004200420042004200420042004200420048
:1008A000420042004200420042004200080542006D
:1008B0004200420042004200420042004200420028
:1008C0004200420042004200420042004A054A05FE
:1008D0004A054A054A054A054A054A054A054A05A0
:1008E0004A054A054A0542004200420042004200D1
:1008F000420042004200420084B200204001000059
:1009000001000000000000000000000000000000E6
:1009100000000000000000000000000000000000D7
:1009200000000000000000000000000000000000C7
:1009300000000000000000000000000000000000B7
:1009400000000000000000000000000000000000A7
:100950000000000000000000000000000000000097
:100960000000000000000000000000000000000087
:100970000000000000000000000000000000000077
:100980000000000000000000000000000000000067
:100990000000000000000000000000000000000057
:1009A000000000000000000000000000B52D010064
:1009B0000000000000000000000000000000000037
:1009C0000000000000000000000000000000000027
:1009D0000000000000000000000000000000000017
:1009E000000000000000000000000000853B010046
:1009F000853B0100853B0100853B0100853B0100F3
:100A0000853B0100853B0100853B0100853B0100E2
:100A1000853B0100853B0100853B0100853B0100D2
:100A200000000000000000000000000000000000C6
:100A300000000000000000000000000000000000B6
:100A4000000000004CBE002050000000010000002B
:100A50000000000001000001000100010001000190
:100A6000000100010203040000010001020304056B
:100A7000060700010001020000010000010203045A
:100A8000050001000102030000010001020304054A
:100A9000060708090A0B0C00010001020304050007
:100AA000B0AE002048010000010000001AA10200C1
:100AB000000200040005000700C1C1AF02000000F1
:100AC00000000000000000C1C100000001000002A1
:100AD00000C1C17B020000000000020200E00C0027
:100AE000C1C1008C290000000000000000000000CF
:100AF00000000000000000000000000000000000F6
:100B000000000000000000000000000000000000E5
:100B100000000000000000000000000000000000D5
:100B200000000000000000000000000000000000C5
:100B300000000000000000000000000000000000B5
:100B400000000000000000000000000000000000A5
:100B50000000000000000000000000000000000095
:100B60000000000000000000000000000000000085
:100B70000000000000000000000000000000000075
:100B80000000000000000000000000000000000065
:100B90000000000000000000000000000000000055
:100BA0000000000000000000000000000000000045
:100BB0000000000000000000000000000000000035
:100BC0000000000000000000000000000000000025
:100BD0000000000000000000000000000000000015
:100BE000000000000000000000000000C1C1000083
:100BF00000000000849C0020900200000100000022
:100C00002100210021002100A50421002100210054
:100C100021002100210021002100210021002100CC
:100C20002100210084048404840484048404840452
:100C300084048404210421002100210021002100DA
:100C4000420042004A05520642044200420042006D
:100C50004200420042004200420042004204420080
:100C6000420042004200420442004200420042046C
:100C70004200420052065206100610065206520664
:100C800052065206520652065206520652065206A4
:100C90005206520652065206520652065206520694
:100CA0005206520652065206520652065206520684
:100CB0005206520652065206520652065206520674
:100E90003487002020050000010000000000000051
:100EA000000000000000000000000000C93B01003D
:100EB0000000000000000000000000000000000032
:100EC0000000000000000000000000000000000022
:100ED0000000000000000000000000000000000012
:100EE00000000000390A0100390A0100390A010036
:100EF000390A0100390A0100390A0100390A0100E2
:100F0000390A01000D3C0100000000000000000053
:100F100000000000000000000000000000000000D1
:100F200000000000F9220100BDF10000513C010069
:100F300000000000000000000000000000000000B1
:100F400000000000000000000000000000000000A1
:100F500000000000AD3701000000000000000000AC
:100F60000000000000000000953C010000000000AF
:100F700000000000000000003543010000000000F8
:100F800000000000A9F70000A9F70000611D0100A2
:100F9000C11D0100E9260100E9260100E926010042
:100FA000E9260100E9260100E9260100E926010001
:100FB000E9260100E9260100E9260100E9260100F1
:100FC000E9260100E9260100E9260100E9260100E1
:100FD000E9260100E9260100E9260100E9260100D1
:10139000E9260100FDFE0000FDFE00000000000047
:1013A000000000000000000000000000000000003D
:1013B000000000000000000000000000F8AF002066
:1013C00048010000010000000000000100000100D1
:1013D00001000100010001000001000102030405F9
:1013E00006070000010001020001000000000100EA
:1013F00000010001020300000100010000010000E3
:1014000000010001000000010203040506070809AD
:101410000A0B0C0D0E0F10111213141516171819B4
:101420001A1B1C1D1E1F20212223242526272829A4
:101430002A2B2C2D2E2F3031323334353637383994
:101440003A3B3C3D3E3F4041424344454647484984
:101450004A4B4C4D4E4F5051525354555657585974
:101460005A5B5C5D5E5F6061626364656667686964
:101470006A6B6C6D6E6F7071727374757677787954
:101480007A7B7C7D7E7F8081828384858687888944
:101490008A8B8C8D8E8F9091929394959697989934
:1014A0009A9B9C9D9E9FA0A1A2A3A4A5A6A7A8A924
:1014B000AAABACADAEAFB0B1B2B3B4B5B6B7B8B914
:1014C000BABBBCBDBEBFC0C1C2C3C4C5C6C7C8C904
:1014D000CACBCCCDCECFD0D1D2D3D4D5D6D7D8D9F4
:1014E000DADBDCDDDEDFE0E1E2E3E4E5E6E7E8E9E4
:1014F000EAEBECEDEEEFF0F1F2F3F4F5F6F7F8F9D4
:10150000FAFBFCFDFEFF00010001000102030405DF
:10151000F8190020080000000000000018C1002099
:1015200018000000010000001B0201030000000081
:101530000000000000000000000000C1C100005DCC
:101540007CBF0020300000000100000021002100CD
:101550002100210021008404840484048404840480
:1015600084048404840421044A054A054A054A0582
:1015700008054200420042004200420024BC002014
:1015800060000000010000000000000000000000FA
:10159000000000000000000000000000B90A010087
:1015A000B90A0100B90A0100B90A0100B90A01002B
:1015B000B90A0100B90A0100B90A0100D93C0100C9
:1015C000091B0100091B0100091B0100414001002A
:1015D00011F9000000000000000000000000000001
:1015E000000000000000000030C1002018000000D2
:1015F00001000000000000000100010203040506D4
:10160000070000010200000001000100001A002094
:10161000090000000000000054A10020300200007A
:10162000010000001D010146000000000000000054
:1016300000000000000000000000000000000000AA
:10164000000000000000000000000000000000009A
:10165000000000000000000000000000000000008A
:10166000000000000000000000000000000000007A
:101840000000000000000000000000000000C1C116
:1018500000000019548C002060040000010000000A
:10186000210021002100210021008404840484043B
:10187000840484048404840484042104420442040F
:10188000C6044204420442044204420442044204A4
:101890004204420442044204420442044204420418
:1018A0004204420442044204420442044204420408
:1018B00042044204420442044204420442044204F8
:1018C00042044204420442044204420442044204E8
:101CB000420442044200420042004200420042000C
:101CC00014760020C00800000100000000000000A1
:101CD0000000000000000000000000000000000004
:101CE000390B0100390B0100390B0100390B0100E0
:101CF000390B0100390B0100390B0100390B0100D0
:101D0000A53D0100652C0100AD430100F1F6000086
:101D1000C9450100C9450100C9450100C945010087
:101D2000C9450100C9450100C9450100C945010077
:101D3000C9450100C9450100C9450100C945010067
:101D4000C9450100C9450100C9450100C945010057
:10257000E93D010000000000000000000000000034
:1025800000000000000000000000000084A3002004
:102590003002000001000000000000000100010204
:1025A00003040506070000000000010203040506FD
:1025B0000708090A0B0C0D0E0F00010203040506A3
:1025C0000708090A0B0C0D0E0F1011121314151623
:1025D0001718191A1B1C1D1E1F2021222324252613
:1025E0002728292A2B2C2D2E2F3031323334353603
:1025F0003738393A3B3C3D3E3F40414243444546F3
:102600004748494A4B4C4D4E4F50515253545556E2
:102610005758595A5B5C5D5E5F60616263646566D2
:102620006768696A6B6C6D6E6F70717273747576C2
:102630007778797A7B7C7D7E7F80818283848586B2
:102640008788898A8B8C8D8E8F90919293949596A2
:102650009798999A9B9C9D9E9FA0A1A2A3A4A5A692
:10266000A7A8A9AAABACADAEAFB0B1B2B3B4B5B682
:10267000B7B8B9BABBBCBDBEBFC0C1C2C3C4C5C672
:10268000C7C8C9CACBCCCDCECFD0D1D2D3D4D5D662
:10269000D7D8D9DADBDCDDDEDFE0E1E2E3E4E5E652
:1026A000E7E8E9EAEBECEDEEEFF0F1F2F3F4F5F642
:1026B000F7F8F9FAFBFCFDFEFF0001020304050632
:1026C0000708090A0B0C0D0E0F1011121314151622
:1026D0001718191A1B1C1D1E1F2021222324252612
:1026E0002728292A2B2C2D2E2F3031323334353602
:1026F0003738393A3B3C3D3E3F40414243444546F2
:102700004748494A4B4C4D4E4F50515253545556E1
:102710005758595A5B5C5D5E5F60616263646566D1
:102720006768696A6B6C6D6E6F70717273747576C1
:102730007778797A7B7C7D7E7F80818283848586B1
:102740008788898A8B8C8D8E8F90919293949596A1
:102750009798999A9B9C9D9E9FA0A1A2A3A4A5A691
:10276000A7A8A9AAABACADAEAFB0B1B2B3B4B5B681
:10277000B7B8B9BABBBCBDBEBFC0C1C2C3C4C5C671
:10278000C7C8C9CACBCCCDCECFD0D1D2D3D4D5D661
:10279000D7D8D9DADBDCDDDEDFE0E1E2E3E4E5E651
:1027A000E7E8E9EAEBECEDEEEFF0F1F2F3F4F5F641
:1027B000F7F8F9FAFBFCFDFEFF000102030001023D
:1027C0000300000100010200145C00200010000062
:1027D00001000000000000000000000000000000F8
:1027E00000000000000000000000000000000000E9
:1027F00000000000000000000000000000000000D9
:1028000000000000000000000000000000000000C8
:1028100000000000000000000000000000000000B8
:1037C00000000000010000000000000000000000F8
:1037D000E6489EFBB8C10020040000000100000084
:1037E0000010000004B60020E80000000100000006
:1037F0001301A10300000000030016000000C1C176
:1038000000000000000000AD1300060000A152659A
:103810006D6F7465204D616E6167656D656E7420B6
:103820004C454400000000000000000000001000B3
:10383000C1C10000000000000049060001A153685A
:103840007574646F776E20506F7765722053757052
:10385000706C69657300000000000000000010003B
:10386000C1C100000000000000C80600828147506E
:103870005520524153204572726F7220496E6A651D
:103880006374696F6E00000000000000000001001A
:10389000C1C10000000000000095C1C10000004649
:1038A0000700020000000000000000C1C10000008D
:1038B0000000020001000000000000C1C100000083
:1038C0000000020082000000000000C1C1000000F2
:1038D0000000C1C100000068E4A90020D001000080
:1038E000010000004200420042004200420042004B
:1038F00042004200420042004200420042004200B8
:1039000042004200420042004200420042004200A7
:103910004200420042004200420042004200420097
:103920004200420042004200420042004200420087
:103930004200420042004200420042004200420077
:103940004200420042004200420042004200420067
:103950004200420042004200420042004200420057
:103960004200420042004200420042004200420047
:103970004200420042004200420042004200420037
:103980004200420042004200420042004200420027
:103990004200420042004200420042004200420017
:1039A0004200420042004200420042004200420007
:1039B00042004200420042004200420042004200F7
:1039C00042004200420042004200420042004200E7
:1039D00042004200420042004200420042004200D7
:1039E00042004200420042004200420042004200C7
:1039F00042004200420042004200420042004200B7
:103A000042004200420042004200420042004200A6
:103A10004200420042004200420042004200420096
:103A20004200420042004200420042004200420086
:103A30004200420042004200420042004200420076
:103A400042004200420042004200420042004A0559
:103A50004A054A054A054A054A0542004200420015
:103A600042004200420042004200420042004A0539
:103A70004A054A054A054A054A05420042004200F5
:103A800042004200420042004200420042004A0519
:103A90004A054A054A054A054A05420042004200D5
:103AA0004200420042004200420042004200420006
:103AB00042004200E4980020A00300000100000042
:103AC00000000000000000000000000000000000F6
:103AD00000000000000000000000000000000000E6
:103AE00000000000000000000000000000000000D6
:103AF00000000000000000000000000000000000C6
:103D900000000000211E0100811E0100E11E010043
:103DA0009106010039030100C90301000000000071
:103DB0000000000000000000000000000000000003
:103DC00000000000000000000000000000000000F3
:103DD00000000000211E0100811E0100E11E010003
:103DE0009106010039030100C90301000000000031
:103DF00000000000000000000000000000000000C3
:103E000000000000000000000000000000000000B2
:103E100000000000211E0100811E0100E11E0100C2
:103E20009106010039030100C903010000000000F0
:103E30000000000000000000000000000000000082
:103E40000000000000000000000000000000000072
:103E50000000000000000000000000000000000062
:103E6000ECB60020E80000000100000000000000A7
:103E70000100000100010001000100010001020336
:103E80000405060000010001000000010203040512
:103E9000060708090A0B0C0D0E0F1011121314154A
:103EA000161718191A1B1C1D1E1F00000001000107
:103EB00002030405060000010000000102030405DE
:103EC000060708090A0B0C0D0E0F1011121314151A
:103ED000161718191A1B1C1D1E1F000000010001D7
:103EE00002030405060000010000000102030405AE
:103EF000060708090A0B0C0D0E0F101112131415EA
:103F0000161718191A1B1C1D1E1F000000010001A6
:103F10000203040506000001000102000001000187
:103F20000000000000000000010001020304000185
:103F3000000101010101010001000102030400016F
:103F40000002020202020200010001020304000159
:103F5000000102000C1A00201E10000000000000EA
:103F60008EC100200100000000000000E0C1002020
:103F7000010000000100000001000000BCC10020A1
:103F8000040000000000000090C1002006000000B6
:103F900000000000DCC10020010000000000000063
:103FA000B8C0002022000000000000002C2A0020E1
:103FB000DE2D0000000000008FC100200100000085
:103FC000000000000C580020090000000000000064
:103FD00084BA002090000000010000001E010112C0
:103FE00000000000000000000000000000000000D1
:103FF00000000000000000000000000000000000C1
:1040000000000000000000000000000000000000B0
:1040100000000000000000000000000000000000A0
:104020000000000000000000000000000000000090
:104030000000000000000000000000000000000080
:104040000000000000000000000000000000000070
:104050000000000000000000000000000000000060
:104060000000C1C1000000000000004CE4B40020CA
:10407000200100000100000021002100210021009A
:104080002100840484048404840484048404840457
:104090008404210442044204420442040805080541
:1040A0000805080508050805080508054A054A0524
:1040B0004A054A0508050805080508050805080514
:1040C0000805080542044204420442044A054A0520
:1040D0004A054A054A054A054A054A054A054A0568
:1040E0004A054A054A054A054A054A054A054A0558
:1040F0004A054A054A054A054A054A054A054A0548
:104100004A054A054A054A054A054A054204420449
:1041100042044204080508050805080508050805C5
:10412000080508054A054A054A054A05080508051F
:1041300008050805080508050805080542044204A5
:10414000420442044A054A054A054A054A054A0509
:104150004A054A054A054A054A054A054A054A05E7
:104160004A054A054A054A054A054A054A054A05D7
:104170004A054A054A054A054A054A054A054A05C7
:104180004A054A0542004200420042004200420005
:104190004200420042004200149F00204002000002
:1041A000010000000000000000000000000000000E
:1041B0000000000000000000390C0100390C010073
:1041C000390C0100390C0100390C0100390C0100D7
:1041D000390C0100390C0100713E0100C5310100AC
:1041E000C5310100C5310100C531010011320100A6
:1041F0001132010011320100113201005D32010063
:104200005D3201005D3201005D320100DD1601000A
:10421000DD160100DD160100DD160100A9320100E6
:10422000A9320100A9320100A9320100F5320100D2
:10423000F5320100F5320100F53201004133010091
:10424000413301004133010041330100411F0100AE
:10425000411F0100411F0100411F0100411F0100DA
:10426000411F0100411F0100411F0100411F0100CA
:10427000411F0100411F0100411F0100411F0100BA
:10428000411F0100411F0100411F0100411F0100AA
:10429000411F0100411F0100411F0100411F01009A
:1042A000411F0100411F0100411F0100411F01008A
:1042B000411F0100411F0100411F0100411F01007A
:1042C000411F0100411F0100411F0100A52E0100F7
:1042D000A52E0100A52E0100A52E0100F52E01003E
:1042E000F52E0100F52E0100F52E0100452F0100ED
:1042F000452F0100452F0100452F0100D513010076
:10430000D5130100D5130100D5130100952F01002D
:10431000952F0100952F0100952F0100E52F010039
:10432000E52F0100E52F0100E52F010035300100E8
:10433000353001003530010035300100711B0100BE
:10434000711B0100711B0100711B0100711B010039
:10435000711B0100711B0100711B0100711B010029
:10436000711B0100711B0100711B0100711B010019
:10437000711B0100711B0100711B0100711B010009
:10438000711B0100711B0100711B0100711B0100F9
:10439000711B0100711B0100711B0100711B0100E9
:1043A000711B0100711B0100711B0100711B0100D9
:1043B000711B0100711B0100711B01000000000056
:1043C00000000000000000000000000000000000ED
:1043D00000000000000000000000000000000000DD
:1043E0000000000014BB002090000000010000004D
:1043F000000000000100010203040506070000019F
:104400000203000102030001020300010203000194
:10441000020300010203000102030001020304057C
:10442000060708090A0B0C0D0E0F101112131415B4
:10443000161718191A1B1C1D1E1F0001020300016C
:104440000203000102030001020300010203000154
:104450000203000102030001020304050607080924
:104460000A0B0C0D0E0F1011121314151617181934
:104470001A1B1C1D1E1F000100010203040506007B
:10448000ACBF002030000000010000002403010E3A
:10449000000000000000000000000000000000001C
:1044A000000000000000000000000000000000000C
:1044B0000000C1C1000000000000000084BC00201A
:1044C0006000000001000000210021002100210007
:1044D00021002104210421042104210421042104B8
:1044E00021042104210421042104210421042104A4
:1044F0002104210421042104210421042104210494
:104500002104210421042104210421042104210483
:10451000210421042100210021002100210021008B
:104520002100210021002100D4B70020C00000009C
:10453000010000000000000000000000000000007A
:1045400000000000000000008D3301008D330100E9
:10455000D9330100D9330100C140010001410100FC
:104560004141010081410100C1410100A11F010041
:104570001DFB0000A12801009D1001001511010084
:10458000B90E0100B90E0100B90E0100B90E01000B
:10459000B90E0100B90E0100B90E0100B90E0100FB
:1045A000F537010025340100253401007134010084
:1045B00071340100BD340100BD3401000935010032
:1045C000093501000935010009350100000000002E
:1045D00000000000000000000000000000000000DB
:1045E00000000000000000000000000000000000CB
:1045F00000000000DCBF00203000000001000000CF
:1046000000000000010001000100000000000000A7
:10461000000000000102030405060700000100017C
:104620000001000102030001000102030405060766
:10463000DDC10020010000000000000094C0002047
:104640002400000001000000010203040102000038
:10465000010900000102030401020300010200003D
:1046600001020304010203000000000040B1002029
:1046700044010000010000006A000000000000008A
:10468000C03F740000010000310000000000000085
:10469000800000000000000000000000800000001A
:1046A000000000000000000000000000000000000A
:1046B00000000000000000000000000000000000FA
:1046C00000010000000000000000000000000000E9
:1046D00000000000000000000000000000000000DA
:1046E00000000000600000000000000040183400DE
:1046F0000801000031000000000000008000000000
:1047000000000000000000000800000000000000A1
:1047100040183400E00100003100000000000000FB
:104720000000000000000000000000008000000009
:104730000000000000000000000000000000000079
:104740000000000000000000000000000000000069
:10475000600000000000000080274000020100000F
:1047600000000000000000008000000000000000C9
:104770000000000002000000000000008027400050
:10478000E001000000000000000000000000000048
:104790000000000000000000000000000000000019
:1047A0000000000000000000000000000000000009
:1047B000000000000000000000000000DEC100203A
:1047C000010000000100000003000000D8C100202B
:1047D00003000000010000000303020084C1002068
:1047E00009000000010000000301010302010302AF
:1047F00000000000185800204700000000000000E2
:10480000B4A50020180200000100000021020143AD
:104810000000000000000000000000000000000098
:104820000000000000000000000000000000000088
:104830000000000000000000000000000000000078
:104840000000000000000000000000000000000068
:104A200000C1C117B4900020300400000100000054
:104A30002100210021002100210084048404840439
:104A40008404840484048404840421044A054A05FB
:104A50004A054A054A054A054A054A054A054A05DE
:104A60004A054A054A054A054A054A054A054A05CE
:104A70004A054A054A054A054A054A054A054A05BE
:104A80004A054A054A054A054A054A054A054A05AE
:104E50004A054A0542044A054A054200420042000A
:104E6000D47E002060080000010000000000000067
:104E70000000000000000000000000000000000032
:104E8000B90C0100B90C0100B90C0100B90C01000A
:104E9000B90C0100B90C0100B90C0100B90C0100FA
:104EA000B53E0100F9EA0000B92C0100251501000A
:104EB000012001000120010001200100012001006A
:104EC000012001000120010001200100012001005A
:104ED000012001000120010001200100012001004A
:104EE000012001000120010001200100012001003A
:1052B00095150100D51B0100D51B0100D51B010070
:1052C000D51B0100D51B0100D51B0100D51B01001A
:1052D000D51B0100D51B0100D51B0100D51B01000A
:1052E000D51B0100D51B0100D51B0100D51B0100FA
:1052F000D51B0100D51B0100D51B0100D51B0100EA
:1056B000D51B01000D2D0100C5FB000081E000009D
:1056C000000000000000000000000000CCA7002047
:1056D00018020000010000000000000001000102AB
:1056E000030405060700000000000102030405068C
:1056F0000708090A0B0C0D0E0F10111213141516C2
:105700001718191A1B1C1D1E1F20212223242526B1
:105710002728292A2B2C2D2E2F30313233343536A1
:105720003738393A3B3C3D3E3F4041424344454691
:105730004748494A4B4C4D4E4F5051525354555681
:105740005758595A5B5C5D5E5F6061626364656671
:105750006768696A6B6C6D6E6F7071727374757661
:105760007778797A7B7C7D7E7F8081828384858651
:105770008788898A8B8C8D8E8F9091929394959641
:105780009798999A9B9C9D9E9FA0A1A2A3A4A5A631
:10579000A7A8A9AAABACADAEAFB0B1B2B3B4B5B621
:1057A000B7B8B9BABBBCBDBEBFC0C1C2C3C4C5C611
:1057B000C7C8C9CACBCCCDCECFD0D1D2D3D4D5D601
:1057C000D7D8D9DADBDCDDDEDFE0E1E2E3E4E5E6F1
:1057D000E7E8E9EAEBECEDEEEFF0F1F2F3F4F5F6E1
:1057E000F7F8F9FAFBFCFDFEFF00000102030405D7
:1057F000060708090A0B0C0D0E0F101112131415D1
:10580000161718191A1B1C1D1E1F202122232425C0
:10581000262728292A2B2C2D2E2F303132333435B0
:10582000363738393A3B3C3D3E3F404142434445A0
:10583000464748494A4B4C4D4E4F50515253545590
:10584000565758595A5B5C5D5E5F60616263646580
:10585000666768696A6B6C6D6E6F70717273747570
:10586000767778797A7B7C7D7E7F80818283848560
:10587000868788898A8B8C8D8E8F90919293949550
:10588000969798999A9B9C9D9E9FA0A1A2A3A4A540
:10589000A6A7A8A9AAABACADAEAFB0B1B2B3B4B530
:1058A000B6B7B8B9BABBBCBDBEBFC0C1C2C3C4C520
:1058B000C6C7C8C9CACBCCCDCECFD0D1D2D3D4D510
:1058C000D6D7D8D9DADBDCDDDEDFE0E1E2E3E4E500
:1058D000E6E7E8E9EAEBECEDEEEFF0F1F2F3F4F5F0
:1058E000F6F7F8F9FAFBFCFDFEFF000000000100EE
:1058F0006058002010020000000000000CC00020D2
:105900003000000001000000A3010143000000007E
:105910000000000000000000000000000000000087
:105920000000000000000000000000000000000077
:1059300000000000C1C10096E4BC0020600000002F
:105940000100000021002100210021002100840429
:10595000840484048404840484048404840421046A
:105960004A054A054A054A054A054A054A054A05BF
:105970004A054A054A054A054A054A054A054A05AF
:105980004A054A054A054A054A054A054A054A059F
:105990004A054A054A054A054A054A0542004200A9
:1059A0004200420094B80020C00000000100000046
:1059B00000000000000000000000000000000000E7
:1059C00000000000390D0100390D0100390D010002
:1059D000390D0100390D0100390D0100390D0100AB
:1059E000390D0100F93E0100F9280100F9280100F4
:1059F000F9280100F9280100F9280100F92801001F
:105A0000F9280100F928010051290100A929010004
:105A1000012A01007D2501007D2501007D25010071
:105A20007D2501007D2501007D2501007D250100EA
:105A30007D250100592A0100B12A0100092B01002E
:105A4000D9250100D9250100D9250100D92501005A
:105A5000D9250100D9250100D9250100D92501004A
:105A60000000000000000000000000000000000036
:105A70003CC00020300000000100000000000000D9
:105A800001000102030405060700000102030405EA
:105A900006070000000001020304050607000000DD
:105AA000000102030405060700010000DFC1002019
:105AB00001000000000000009CBE0020500000001B
:105AC00000000000C0C10020040000000000000031
:105AD000705A0020040000000000000060C1002097
:105AE00014000000010000001101081002740F00F2
:105AF000240000000000000000CF0000745A0020C5
:105B100000000000BC5A002002000000000000004D
:105B2000E1C100200100000000000000C4C100200D
:105B30000400000000000000A4BB00208000000062
:105B400001000000550000000000000000000000FF
:105B50000000000000000000000000000000000045
:105B60000000000000000000000000000000000035
:105B70000000000000000000000000000000000025
:105B80000000000000000000000000000000000015
:105B90000000000000000000000000000000000005
:105BA00000000000000000000000000000000000F5
:105BB00000000000000000000000000000000000E5
:105BC0000000000074C1002010000000010000006F
:105BD00000112233445566778899AABBCCDDEEFFCD
:105BE000E49400200004000001000000A500000073
:105BF00000000000000000000000000000000000A5
:105C00000000000000000000000000000000000094
:105C10000000000000000000000000000000000084
:105C20000000000000000000000000000000000074
:105FE000000000000000000000000000E2C10020EE
:105FF0000100000000000000E3C1002001000000DB
:1060000000000000E5C100200100000001000000C8
:1060100001000000E6C100200100000000000000B7
:10602000E7C100200100000000000000C05A00206D
:1060300050010000000000006CC00020280000009B
:1060400001000000C85C0100FC5601001857010067
:10605000201801008C180100F818010064190100D3
:10606000404F0100FC500100C8530100DCC000207B
:10607000200000000100000020180100B5140100FC
:106080008C18010069240100F8180100C5240100E2
:10609000641901002125010048C1002018000000FA
:1060A00001000000404F010029480100FC500100A0
:1060B00029480100C853010029480100C8C1002037
:1060C000040000000100000044BD002044BD002089
:1060D00060000000010000000000000028540100E2
:1060E00048540100085401000000000000000000B6
:1060F00000000000000000000000000000000000A0
:10610000000000000000000000000000000000008F
:10611000000000000000000000000000000000007F
:10612000000000000000000000000000000000006F
:106130000000000000000000CCC1002004000000AE
:1061400000000000D0C1002004000000000000009A
:1061500044AD00206C01000001000000430000007D
:10616000000000000000000000000000000000002F
:1061700000000000000000000000000043000000DC
:10618000000000000000000000000000000000000F
:1061900000000000000000000000000043000000BC
:1061A00000000000000000000000000000000000EF
:1061B000000000000000000000000000430000009C
:1061C00000000000000000000000000000000000CF
:1061D000000000000000000000000000430000007C
:1061E00000000000000000000000000000000000AF
:1061F000000000000000000000000000430000005C
:10620000000000000000000000000000000000008E
:10621000000000000000000000000000430000003B
:10622000000000000000000000000000000000006E
:10623000000000000000000000000000BB5701004B
:1062400045510100000000001AE80000F96001005B
:10625000F8600100F8600100F8600100F8600100DA
:10626000F8600100F8600100F8600100F8600100CA
:10627000F8600100FFFFFFFFFFFFFFFFFFFFFFFFD1
:10628000FFFF0000010041534349490000000000A6
:1062900000000000000000000000000000000000FE
:1062A0000000000000004153434949000000000085
:1062B00000000000000000000000000000000000DE
:1062C0000000000000000000105C0020040000003E
:1062D00000000000D4C10020040000000000000005
:1062E000000000000000000022222222222222229E
:1062F00090B58DB006AF7860BA4B93F80832012B99
:1063000000F032877B68022B07D0032B09D0012BCA
:106310000BD1002009F054FB0BE0012009F050FBE9
:1063200007E0022009F04CFB03E0032009F048FBE2
:1063300000BF7B68022B05D10FF0B8FA09F098FB7B
:1063400000F02DBF0FF0B2FA042009F039FB252030
:106350000DF06CFD0346002B00F0EA862B200DF0BB
:1063600065FD0346002B00F0E386052009F028FBBD
:106370009D4B1B68022B02D19B4B00221A609B4B4A
:106380001B68112B00F0AA85112B35D8082B00F0C3
:10639000A383082B16D8032B00F0B780032B05D856
:1063A000012B00F09580012B66D872E0052B00F0E0
:1063B0003B81052BC0F0BA80062B00F09986072B95
:1063C00000F0B5BE0C2B00F015840C2B06D80A2B60
:1063D00000F0B2830A2B00F2DE8387E30E2B00F07D
:1063E00059840E2BC0F033840F2B00F01485102B32
:1063F00000F02C8500F0B6BE1A2B00F0C8851A2BD1
:106400001AD8152B00F09F84152B07D8132B00F0FA
:106410004D84132B00F2658400F093BD172B00F020
:10642000B884172BC0F09A84182B00F0D284192B53
:1064300000F0928500F096BE1F2B00F0FE851F2B0A
:106440000DD81C2B00F0DD811C2BC0F0C0851D2B4E
:1064500000F0C8851E2B00F0DF8500F083BE212BE5
:1064600000F01586212BC0F00186222B00F02F862C
:10647000B3F1FF3F00F05BBE5B4B03221A605B4B46
:1064800002221A605A4B1B680A335A4A136000F002
:1064900086BE594B00221A60534B1B68012B07D153
:1064A000062009F08DFA514B02221A6000F03FBE1F
:1064B0004D4B00221A60514B00221A604B4B0122B7
:1064C0001A604B4B1B6878334A4A136000F067BE72
:1064D000454B1B68012B07D1072009F071FA434B8C
:1064E00002221A6000F023BE082009F069FA444B2A
:1064F00000221A703D4B03221A60424B00221A7090
:10650000012008F07DFF00F012BE64200EF0B0F80C
:106510003D4B00221A703D4B01221A703C4B042265
:106520001A60324B0C221A6000F001BE394B5B78C6
:106530001A06384B9B781B041A44364BDB781B0237
:106540001344344A12791344334A1360314B5B7855
:10655000002B18D12F4B9B78002B14D12D4BDB78BF
:10656000002B10D12B4B1B79002B0CD10A2009F0EA
:1065700027FA0AF0DFFC0C200EF05EF81B4B082215
:106580001A6000F0D4BD0B2009F01AFA234B262222
:106590001A601B4B1B78DBB21A461946204B5B5C1A
:1065A000DBB243F00103D9B21D4B99541B4B1B685E
:1065B0003F2B02D9194B3F221A601A4B01221A6055
:1065C00064200EF055F8104B01221A700F4B012277
:1065D0001A700F4B05221A60044B0C221A6000F04F
:1065E000A6BD00BF60580020442C00203C2C002099
:1065F00098C10020A4C10020E8550020DC550020EF
:10660000392C002096C10020402C00200557002086
:10661000EC55002008570020342B0020482C002087
:10662000302B00204C2C0020A94B1B685A1CA84979
:106630000A60A84A52781106A64A927812041144B8
:10664000A44AD27812020A44A24909790A44A2490A
:1066500041F823209E4B1A68A04B1B689A4240F0D9
:10666000BD800C2009F0ACF99B4B93F87C30DBB279
:1066700003F00103002B6BD10D2009F0A1F90023D9
:106680007B6125E0964B1B78DBB21946924A7B6909
:1066900052F82320934889017B690B4440F823205A
:1066A0008D4A7B6952F823308D4A1278D2B2144653
:1066B0008D4891017A690A4450F822201A438A4889
:1066C000A1017B690B4440F823207B6901337B6186
:1066D0007B690F2BD6D910233B610CE0804B1B78D4
:1066E000DBB280499A013B691344002241F8232020
:1066F0003B6901333B613B693F2BEFD9784B1B78FA
:10670000DBB21846744B5A6D764903020B4454337E
:106710001A60714B5B6D724A1278D2B210467249A0
:1067200012020A44543212681A436F4903020B449E
:1067300054331A606A4B1B78DBB21A4619466B4B0E
:106740005B5CDBB223F00203D9B2684B99543BE0A7
:106750000E2009F035F90023FB6025E0604B1B7823
:10676000DBB219465C4AFB6852F823205D48890178
:10677000FB680B4440F82320574AFB6852F823304B
:10678000574A1278D2B2144657489101FA680A441F
:1067900050F822201A435448A101FB680B4440F8EA
:1067A0002320FB680133FB60FB683F2BD6D94C4BA1
:1067B0001B78DBB21A4619464C4B5B5CDBB243F0EC
:1067C0000203D9B2494B99540F2009F0F9F8444B10
:1067D0001B78474B1C221A6000F0A9BC64200DF006
:1067E00047FF3B4B1B68DAB2424B1A70424B012207
:1067F0001A70424B05221A603D4B0C221A6000F0C1
:1068000096BC3F4B1B68042B00F0E180042B0BD897
:10681000012B20D0012B1AD3022B00F05981032B1E
:1068200000F0CE8000F083BC072B00F03081072BF6
:1068300007D8052B00F0D280062B00F0F88000F07E
:1068400076BC082B00F02A81B3F1FF3F43E12C4BCB
:1068500001221A603FE1264B08221A60294B5B781F
:10686000012B2ED1274B1B78013B032B00F23281E9
:1068700001A252F823F000BF896800009768000069
:10688000A5680000B3680000194B1D221A601D4B5B
:1068900002225A7093E0164B1F221A60194B0222F3
:1068A0005A708CE0124B21221A60164B02225A7049
:1068B00085E00F4B08221A60124B05225A7000BF68
:1068C0007DE00023FB7276E00023BB726DE000BF29
:1068D0004C2C002008570020342B0020482C00208E
:1068E000392C0020F45500202C2A0020302B0020C9
:1068F0003C2C0020402C002005570020EC550020A7
:10690000E855002060580020F97ABA7AA848134662
:10691000DB009B1ADB004FF4C47202FB01F213444C
:1069200003441B78062B0ED1F97ABA7AA048134695
:10693000DB009B1ADB004FF4C47202FB01F213442C
:10694000034400221A70F97ABA7A99481346DB0098
:106950009B1ADB004FF4C47202FB01F213440344A0
:106960001B78012B1ED1934AFB7A1370924ABB7A93
:106970001370F97ABA7A8E481346DB009B1ADB0053
:106980004FF4C47202FB01F21344034402221A7052
:106990008A4B00221A708A4B03221A60FF23BB72B3
:1069A000FF23FB72BB7A0133BB72BB7A062BABD9D8
:1069B000FB7A0133FB72FB7A002B85D08AE089E0F9
:1069C000804B13221A607E4B04221A6083E07D4BB9
:1069D0000F221A607A4B05221A607CE0774B1B78F5
:1069E0005A1CD1B2754A11700A2B19D9714B1B78F8
:1069F0001846714B1B781A466D491346DB009B1AEB
:106A0000DB004FF4C47202FB00F213440B44052276
:106A10001A706C4B08221A60694B01221A605AE006
:106A2000684B19221A60664B06221A6053E0664BC7
:106A30001B79002B02D0012B07D00DE0614B1C22EB
:106A40001A605F4B05221A6020E05E4B1C221A6020
:106A50005B4B07221A6019E0564B1B781846564BC1
:106A60001B781A4652491346DB009B1ADB004FF491
:106A7000C47202FB00F213440B4404221A70514BFF
:106A800008221A604E4B01221A6000BF23E04D4BD2
:106A900016221A604A4B08221A601CE0454B1B78EC
:106AA0001846454B1B781A4641491346DB009B1A92
:106AB000DB004FF4C47202FB00F213440B440322C8
:106AC0001A70404B08221A603D4B01221A6002E006
:106AD00000BF2CE300BF2AE3102008F071FF3B4BFE
:106AE00000221A70374B09221A6020E311200DF0A2
:106AF000C7FA0346002B40F03983344B1B781A4603
:106B0000334B9A5C334B1A70334B1B789AB20A237F
:106B1000049301230393314B0293012301932D4BE3
:106B2000009313461422152112200AF045F803465B
:106B3000002B00F0DF8232E329480EF0A7FD034668
:106B40001A46284B1A70274B1B78012B12D0022BA8
:106B50001AD0002B00D0EAE2162008F031FF1B4BC0
:106B60001B781A461D4B19781F4B9954154B01225F
:106B70001A600FE0172008F023FF00237B7200BF8C
:106B8000104B01221A6005E0182008F019FF08F0E8
:106B90006FFF04E3CBE2282008F012FF094B0B2221
:106BA0001A60124B1B680133114A1360F7E200BFF1
:106BB000545400202C2B0020382C00200958002091
:106BC000E85500203C2C002000570020F155002003
:106BD000E0C10020F456002006570020085700208E
:106BE0000C000020F0550020502C002098C10020FF
:106BF000A4C10020292008F0E3FE2A200DF040FA6D
:106C00000346002B40F0B482A94B1B78DBB21A4636
:106C1000A84B985CA84B1B78A84A12780D210391C9
:106C2000012102910192009303462D222C212B2059
:106C300008F014FE0346002B00F05E829F4B1B7889
:106C40009B00DBB20133DAB29C4B1A70A7E22E2014
:106C500008F0B6FE2F200DF013FA0346002B40F08B
:106C60008982934B1B78DBB21A46924B9A5C934B0A
:106C70001B7819460E2302930191914B0093134602
:106C800032223121302009F077FC0346002B00F03E
:106C9000358284E209200DF0F3F90346002B40F021
:106CA0006B82884B1B68884A136040E2432008F0DF
:106CB00087FE864B1B781A467E4B9A5C14230393FF
:106CC00001230293022301933823009313464722A2
:106CD0004621452008F0C2FD0346002B00F010823B
:106CE0005DE2482008F06CFE49200DF0C9F903462A
:106CF000002B40F04382754B1B781A466D4B9B5C12
:106D000099B2724B1B781846714B1B781A46134682
:106D1000DB009B1ADB004FF4C47202FB00F2134449
:106D20006C4A1344043315220292142201920093F8
:106D30000B464C224B214A2009F082F90346002BD6
:106D400000F0E0812BE24E200DF09AF90346002B73
:106D500040F016825C4B1C221A60E8E1532008F0D8
:106D60002FFE5A4B1B781A46524B9A5C17230393FB
:106D700001230293052301933823009313465722DE
:106D80005621552008F06AFD0346002B00F0BC8117
:106D900005E2582008F014FE59200DF071F9034661
:106DA000002B40F0EF81494B1B781A46414B9A5C0F
:106DB0001823029315230193414B009313465C2241
:106DC0005B215A2009F0D8FB0346002B00F09E817E
:106DD000E5E13E4B1B7819463D4B1B781A4613469E
:106DE000DB009B1ADB004FF4C47202FB01F2134478
:106DF0001833384A13441422374918460EF005FE5A
:106E00005E200DF03DF90346002B40F0BD812E4B76
:106E10001C221A608BE1332008F0D2FD2B4B1B782B
:106E20001A46244B9A5C10230393012302930223F6
:106E300001933D230093134637223621352008F075
:106E40000DFD0346002B00F06381A8E1382008F017
:106E5000B7FD39200DF014F90346002B40F0968160
:106E60001A4B1B781A46134B9B5C99B2174B1B7835
:106E70001846174B1B781A461346DB009B1ADB009B
:106E80004FF4C47202FB00F213443033114A13442E
:106E9000112202920822019200930B463C223B21D0
:106EA0003A2009F0CDF80346002B00F0338176E15B
:106EB000392C0020E4C10020402C00200557002080
:106EC00008570020EC5500203C2C00202C2B0020E3
:106ED000382C002054540020095700203D2008F091
:106EE0006FFD3E200DF0CCF80346002B40F05081A2
:106EF000AC4B1B781A46AC4B9B5C99B2A94B1B78E8
:106F00001846AA4B1B781A461346DB009B1ADB0077
:106F10004FF4C47202FB00F213442833A44A134412
:106F20000433122202920422019200930B46412262
:106F300040213F2009F084F80346002B00F0EC804C
:106F40002DE142200DF09CF80346002B40F02281F9
:106F5000984B1C221A60EAE0632008F031FD914B47
:106F60001B781A46904B9A5C1A23039300230293D2
:106F7000012301933D230093134667226621652078
:106F800008F06CFC0346002B00F0C88007E1682085
:106F900008F016FD69200DF073F80346002B40F051
:106FA000FB80804B1B781A467F4B9A5C1B23029315
:106FB00005230193804B009313466C226B216A20BA
:106FC00009F0DAFA0346002B00F0AA80E7E06D2012
:106FD0000DF056F80346002B40F0E080754B1C2264
:106FE0001A60A4E0192008F0EBFC744B9B789AB26D
:106FF000724BB3F8043119461E2302930191704B72
:10700000009313461D221C211B2009F0CFFF0346CD
:10701000002B00F08780C2E01A200DF031F8034603
:10702000002B03D0654B04225A70B8E0614B1C2240
:107030001A60624B05225A7079E0232008F0C0FCE8
:107040005E4B9B789AB25D4BB3F80632194620230B
:10705000029301915B4B00931346272226212520A2
:1070600009F0E0FF0346002B5ED098E024200DF0ED
:1070700007F80346002B03D0504B04225A708EE0D1
:107080004C4B1C221A604D4B05225A704FE02320B6
:1070900008F096FC494B9B789AB2484BB3F8043100
:1070A0001946464BB3F80632184622230493039040
:1070B000444B02930191424B009313462722262111
:1070C000252009F079FD0346002B2FD067E024200E
:1070D0000CF0D6FF0346002B03D0384B04225A7025
:1070E0005DE0344B1C221A60344B05225A701EE0BE
:1070F00000BF37E000BF35E000BF33E000BF31E044
:1071000000BF2FE000BF2DE000BF2BE000BF29E053
:1071100000BF27E000BF25E000BF23E000BF21E063
:1071200000BF1FE000BF1DE000BF1BE000BF19E073
:10713000002008F065F9244B1B68002B02D1224B7C
:1071400002221A60204B1B68012B08D16E2008F028
:1071500037FC1D4B03221A60164B02221A6008F0FE
:1071600087FC1CE0FFF7F0B800BF18E000BF16E096
:1071700000BF14E000BF12E000BF10E000BF0EE04F
:1071800000BF0CE000BF0AE000BF08E000BF06E05F
:1071900000BF04E000BF02E000BF00E000BF1C37FA
:1071A000BD4690BD2C2B0020E4C10020382C0020CF
:1071B000545400203C2C0020005700206058002030
:1071C0006358002066590020442C002090B5A9B0D7
:1071D00004AFB9607A603B600346FB737B680133A0
:1071E0001B7803F01F0387F87B307B681B7887F8D8
:1071F0007A30BB687B670023C7F88C30A34B3B67B2
:10720000A34BFB660023FB610423BB660023BB6129
:1072100097F87A30012B40F010867B689B7887F8CE
:1072200067307B68DB7887F866309A4B01221A70EA
:10723000984A97F87B305370964A97F86730937066
:10724000944A97F86630D370924B01221A7197F8DE
:107250006730002B40F0228197F86630013B042B09
:1072600000F2088101A252F823F000BF81720000F1
:1072700097720000AD720000577300009573000014
:107280007B681A79844B1A70824B00221A71BB6E8C
:1072900001333B60F5E07F4B00221A717E4B1A7878
:1072A0007C4B5A71BB6E02333B60EAE07B6809336A
:1072B0001B78002B27D1774B00221A71754B0022C7
:1072C0005A71744B00229A71724B0022DA71714B21
:1072D00000221A726F4B05225A723B6FBB61BB6969
:1072E0006C4AC2F80A3007F11803042118460AF064
:1072F000BFF90346FB61FB69664AC2F80E30BB6EFC
:107300000E333B60BDE0634B00221A71614B0022DB
:107310005A71604B00229A715E4B0022DA715D4B0C
:1073200000221A725B4B05225A72FB6EBB61BB696D
:10733000584AC2F80A3007F11803042118460AF027
:1073400097F90346FB61FB69524AC2F80E30BB6EE7
:107350000E333B6095E04F4B00221A714D4B0522D6
:107360005A714C4B00229A714A4B0022DA71494BF8
:1073700000221A72474B00225A72464B00229A7220
:10738000444B0022DA72434B00221A73BB6E09335E
:107390003B6076E07B6804331B78002B30D13D4B9B
:1073A00000221A710523C7F888300AE0394AD7F855
:1073B0008830134400221A70D7F888300133C7F898
:1073C0008830D7F88830242BF0DD7B6805331B78B4
:1073D000002B11D17B6806331B78F02B0CD17B6816
:1073E00007331B78F02B07D17B6808331B78F12B10
:1073F00002D1284B3E225A71BB6E21333B6040E0E4
:10740000244B00221A710523C7F884300AE0214A70
:10741000D7F88430134400221A70D7F8843001332F
:10742000C7F88430D7F88430242BF0DD7B6805332F
:107430001B78002B1AD17B6806331B78F02B15D1F3
:107440007B6807331B78F22B10D17B6808331B78DD
:10745000F12B0BD10F4B0322DA730E4B03225A721E
:107460000C4B0322DA710B4B0E225A71BB6E213387
:107470003B6006E0074B05221A71BB6E01333B608F
:1074800000BF044B7B6000F0C1BC00BF00F0F0F116
:1074900000F0F2F1E4940020BC5A002097F8673025
:1074A000022B40F0B384FF2387F86530002387F870
:1074B000643097F86630013B502B00F29E8401A2A5
:1074C00052F823F0097600001F76000035760000A0
:1074D000FB7D0000FB7D0000FB7D0000FB7D0000CC
:1074E000FB7D0000FB7D0000FB7D0000FB7D0000BC
:1074F000FB7D0000FB7D0000FB7D0000FB7D0000AC
:107500004D7600003B770000FB7D0000FB7D000016
:10751000FB7D0000FB7D0000FB7D0000FB7D00008B
:10752000FB7D0000FB7D0000FB7D0000FB7D00007B
:10753000FB7D0000FB7D0000FB7D0000FB7D00006B
:1075400071790000357B0000FB7D0000FB7D0000B1
:10755000FB7D0000FB7D0000FB7D0000FB7D00004B
:10756000FB7D0000FB7D0000FB7D0000FB7D00003B
:10757000FB7D0000FB7D0000FB7D0000FB7D00002B
:10758000FB7D0000FB7D0000FB7D0000FB7D00001B
:10759000FB7D0000FB7D0000FB7D0000FB7D00000B
:1075A000FB7D0000FB7D0000FB7D0000FB7D0000FB
:1075B000FB7D0000FB7D0000FB7D0000FB7D0000EB
:1075C000FB7D0000FB7D0000FB7D0000FB7D0000DB
:1075D000FB7D0000FB7D0000FB7D0000FB7D0000CB
:1075E000FB7D0000FB7D0000FB7D0000FB7D0000BB
:1075F000FB7D0000FB7D0000FB7D0000FB7D0000AB
:10760000CD7C0000E57C00007B681A79C14B1A70C4
:10761000C14B00221A71BB6E01333B60F4E3BE4BD9
:1076200000221A71BB4B1A78BB4B5A71BB6E0233E6
:107630003B60E9E3B84B00221A711022B749B84801
:107640000EF0E3F9BB6E11333B60DDE37B6804337E
:107650003B66B44BFB653B6E1B889BB20221184610
:1076600008F0A8FB034687F8653097F86530FF2BD4
:1076700006D1FB6D80221A70BB6E01333B60C3E301
:107680003B6EDB78002B06D0FB6D82221A70BB6E3E
:1076900001333B60B8E33B6E9B78072B49D801A2CE
:1076A00052F823F0C5760000E3760000157700005D
:1076B0003377000033770000337700003377000022
:1076C0003377000097F86520974913465B00134411
:1076D0009B000B44023300221A70FB6D00221A70CB
:1076E00027E097F86520904913465B0013449B0000
:1076F0000B44023301221A7097F865208A49134619
:107700005B0013449B000B4400221A70FB6D0022A7
:107710001A700EE097F86520834913465B00134406
:107720009B000B44023302221A70FB6D00221A7078
:1077300000BFBB6E01333B6066E37B680433BB650F
:10774000784B7B65BB6D9B78002B14BF0123002316
:1077500087F85330BB6D1B889BB20221184608F096
:1077600029FB034687F8653097F86530FF2B06D173
:107770007B6D80221A70BB6E01333B6044E37B6DEE
:1077800000221A7097F86520674913465B0013447E
:107790009B000B4407331A787B6D5A7097F865206D
:1077A000614913465B0013449B000B4402331B7872
:1077B000012B18D17B6D01229A707B6D0022DA704B
:1077C0007B6D00221A717B6D00225A717B6D002245
:1077D0009A717B6D0022DA7100221A7200225A72AD
:1077E00000229A72C0E097F865204F4913465B006B
:1077F00013449B000B4402331B78002B06D0002B54
:10780000C0F2B280072B00F3AF8051E07B6D002205
:107810009A707B6D0022DA7097F865204249134612
:107820005B0013449B000B4403331A787B6D1A7181
:1078300097F865203C4913465B0013449B000B44BA
:1078400004331A787B6D5A7197F85330002B15D09A
:1078500097F86520344913465B0013449B000B44A2
:10786000053300221A7097F865202F4913465B00F4
:1078700013449B000B44063300221A7097F86520CE
:10788000294913465B0013449B000B4405331A78C7
:107890007B6D9A7197F86520234913465B0013446A
:1078A0009B000B4408331A687B6DC3F807205BE02C
:1078B0007B6D00221A717B6D00225A717B6D002254
:1078C0009A717B6D0022DA7100221A7200225A72BC
:1078D00000229A7297F86520134913465B001344FF
:1078E0009B000B4402331B78072B3CD801A252F8B3
:1078F00023F000BF657900002D7900003579000084
:107900003D790000457900004D790000557900006F
:107910005D790000BC5A0020E494002074C100206E
:10792000E9940020E89400200C5B00207B6D01228C
:107930009A7018E07B6D02229A7014E07B6D03222E
:107940009A7010E07B6D04229A700CE07B6D05222A
:107950009A7008E07B6D06229A7004E07B6D072226
:107960009A7000E000BF00BFBB6E0B333B604BE280
:107970007B680433FB64D34BBB64FB6C1B889BB2FA
:107980000421184608F016FA034687F865300023EC
:1079900087F8643097F86530FF2B06D1BB6C8022E6
:1079A0001A70BB6E01333B602EE2FB6C9B7887F84C
:1079B000643097F86520C44913465B0013441B01EB
:1079C0000B441B7887F8473097F8642097F84730C6
:1079D0009A4206D9BB6C02221A70BB6E01333B601F
:1079E00012E2FB6C03333B64002387F8833013E01F
:1079F00097F883305B003A6C13445B78002B06D019
:107A0000BB6C82221A70BB6E01333B600AE097F8B0
:107A10008330013387F8833097F8832097F86430F8
:107A20009A42E5D3002387F882307BE097F88230D2
:107A30005B003A6C13441B78072B6BD801A252F8F9
:107A400023F000BF657A0000937A0000C17A00003D
:107A5000157B0000157B0000157B0000157B0000E6
:107A6000157B000097F8651097F8823096481A4603
:107A700052001A4453001A460B465B000B441B018C
:107A800013440344023300221A70BB6C00221A70A4
:107A900040E097F8651097F882308B481A465200FC
:107AA0001A4453001A460B465B000B441B01134457
:107AB0000344023301221A70BB6C00221A7029E0C1
:107AC00097F8651097F882307F481A4652001A449A
:107AD00053001A460B465B000B441B01134403443E
:107AE000023302221A7097F8651097F882307648B0
:107AF0001A4652001A4453001A460B465B000B44C8
:107B00001B0113440344013300221A70BB6C002292
:107B10001A7000BFBB6E01333B6097F882300133AF
:107B200087F8823097F8822097F864309A42FFF401
:107B30007DAF69E17B680433FB63624BBB63FB6B26
:107B40001B889BB20421184608F034F9034687F8D5
:107B50006530FB6B9B783B7597F865205A49134657
:107B60005B0013441B010B441B7887F8643097F8C3
:107B70006530FF2B06D1BB6B80221A70BB6E0133C0
:107B80003B6041E1BB6B00221A70BB6B97F864202D
:107B90005A70002387F8813084E0BB6B02337B632B
:107BA00097F881309B007A6BD01897F8651097F89A
:107BB0008130454C1A4652001A4453001A460B466F
:107BC0005B000B441B011344234402331B780370F6
:107BD00097F881309B007A6BD01897F8651097F86A
:107BE0008130394C1A4652001A4453001A460B464B
:107BF0005B000B441B011344234403331B78437085
:107C000097F881309B007A6BD01897F8651097F839
:107C100081302D4C1A4652001A4453001A460B4626
:107C20005B000B441B011344234404331B78837013
:107C30003B7D1A4697F8813042FA03F303F00103C3
:107C4000002B12D097F8651097F881301E481A461D
:107C500052001A4453001A460B465B000B441B01AA
:107C600013440344053301221A7097F881309B00B6
:107C70007A6BD01897F8651097F88130124C1A4635
:107C800052001A4453001A460B465B000B441B017A
:107C90001344234405331B78C37097F881300133B4
:107CA00087F8813097F8812097F864309A42FFF482
:107CB00074AF97F864309B001A46BB6E13440233CE
:107CC0003B60A1E0E89400206C5B0020624B002246
:107CD0001A712822614962480DF097FEBB6E293364
:107CE0003B6091E07B6804333B635E4BFB62FB6A65
:107CF00000221A70FB6A00225A7000229A70002239
:107D0000DA7000221A71FB6A00225A7100229A71FD
:107D10000022DA7100221A72FB6A05225A720023CD
:107D2000FB675EE0504AFB6F52F82330BB624E4A5D
:107D3000FB6F52F8233008337B623B6B1B68002BD0
:107D400019D17B6A1B880A339AB2FB6A5A81FB6A93
:107D500003F10C00444B1968FB6A5B899BB21A461D
:107D60000DF053FE404B5B683B623B6A1A68FB6A4E
:107D7000C3F8012038E03B6B1A68BB6A1B689A4263
:107D80002CD17B6A1B880A339AB2FB6A5A81FB6A40
:107D900003F10C00344AFB6F52F82310FB6A5B8935
:107DA0009BB21A460DF031FEFB6F0133092B0BDC41
:107DB000FB6F01332C4A52F823303B623B6A1A684E
:107DC000FB6AC3F801200FE0FB6A00225A70002210
:107DD0009A700022DA7000221A7105E0FB6F0133FD
:107DE000FB67FB6F092B9DDDFB6A5B899BB21A4623
:107DF000BB6E13440C333B6006E0174B05221A712F
:107E0000BB6E01333B6000BF134B7B60174803F030
:107E1000A3FF7B6F1868F97B0023029397F8A430C7
:107E20000193002300933B687A680BF0A3F90346A3
:107E3000C7F88C300E4B01221A70D7F88C30002B0B
:107E400006D00C4B0C4A4FF440710C480CF062FB0E
:107E500000BF9437BD4690BDE4940020184F010048
:107E6000E9940020E89400206CC000206C020020FF
:107E7000BD5A0020A0350100CC600100A8350100EA
:107E800090B589B000AF564B4FF470421A80554BF5
:107E90004FF470421A80544B4FF470421A80534B87
:107EA0001B799BB2DB00FB83FB8B0333FB8300233B
:107EB0007B8315E0FB8B4D4AD35CFF2B01D1002364
:107EC00071E2FB8B494AD35C9BB203F03F039AB249
:107ED000FB8B13449BB20133FB837B8B01337B838E
:107EE0007B8B052BE6D9FB8B0133FB83404B3C4658
:107EF0000FCB07C4238002341B0C2370FB8B3B4A3F
:107F0000134439460E2218460DF0FBFA0346002BA7
:107F100038D1FB8B354A9818FB8B013B334AD35C35
:107F200003F03F031A4633490DF0EBFA0346002BEA
:107F300028D000237B610BE02F4A7B69134419781A
:107F40002A4A7B6913440A461A707B6901337B61B4
:107F50007B69B3F5C87FEFD307E0244A7B691344FC
:107F600000221A707B6901337B617B69B3F5805F06
:107F7000F3D3224B01221A70214B05221A700CF008
:107F8000D3FC80E7FB8B194A9818FB8B013B174AFF
:107F9000D35C03F03F031A4616490DF0B2FA0346CC
:107FA000002B5AD0FB8B114A9818FB8B013B0F4AD0
:107FB000D35C03F03F031A460E490DF026FD0B4B30
:107FC0001B799BB2DB007B827B8A0133074AD35C3F
:107FD0009BB2DB003B820023BB837B8A7B831BE05D
:107FE000E0030020EA030020E2030020F403002065
:107FF000C84D01001C580100B4AB002097C10020FF
:10800000EC0300207B8B834AD35C9AB2BB8B134476
:10801000BB837B8B01337B837A8B798A3B8A0B44CE
:10802000023B9A42EEDDBB8B798A3A8A0A44013AD6
:1080300078498A5C1344DBB2002B09D07A8A3B8AE8
:108040001344013BBA8BD2B25242D1B2714AD154DD
:10805000714B05221A700CF067FC6E4B5B799BB27A
:10806000DB00FB83FB8B6B4AD35CC02B40F0F880BA
:10807000FB8B0833674AD25C684B1B88DBB29A42A1
:1080800032D1FB8B0933634AD25C644B1B881B0AD9
:108090009BB2DBB29A4227D1FB8B0A335D4AD25C9A
:1080A0005F4B1B88DBB29A421ED1FB8B0B33594AC4
:1080B000D25C5B4B1B881B0A9BB2DBB29A4213D18A
:1080C000FB8B0C33534AD25C564B1B88DBB29A4273
:1080D0000AD1FB8B0D334F4AD25C524B1B881B0AD3
:1080E0009BB2DBB29A4234D0FB8B08334B4A1288E6
:1080F000D1B2484AD154FB8B0933484A1288120A3C
:1081000092B2D1B2434AD154FB8B0A33444A12880B
:10811000D1B2404AD154FB8B0B33414A1288120A28
:1081200092B2D1B23B4AD154FB8B0C333D4A1288F8
:10813000D1B2384AD154FB8B0D333A4A1288120A15
:1081400092B2D1B2334AD154334B05221A700CF09B
:10815000EBFB0023BB83FB8B05337B8309E07B8B2D
:108160002C4AD35C9AB2BB8B1344BB837B8B013309
:108170007B837A8BFB8B0F339A42F0DDFB8B0333CF
:10818000244AD35C9AB2BB8B1344BB83BB8BDBB258
:10819000002B21D00023BB83FB8B05337B8309E0BD
:1081A0007B8B1C4AD35C9AB2BB8B1344BB837B8B07
:1081B00001337B837A8BFB8B0F339A42F0DDFB8B91
:1081C0000333BA8BD2B25242D1B2124AD154124BBB
:1081D00005221A700CF0A8FB0023BB83FB8B7B836A
:1081E00009E07B8B0B4AD35C9AB2BB8B1344BB83F5
:1081F0007B8B01337B837A8BFB8B04339A42F0DDDC
:10820000BB8BDBB2002B2BD00023BB83FB8B7B8390
:1082100014E000BFF4030020EC03002062D700004C
:10822000FAFE0000360301007B8B614AD35C9AB2F0
:10823000BB8B1344BB837B8B01337B837A8BFB8BA0
:1082400003339A42F0DDFB8B0433BA8BD2B2524235
:10825000D1B2574AD154574B05221A700CF064FB27
:10826000FB8B534AD35CC12B40F08980524AFB8B75
:108270001380FB8B03339AB2504B1A80FB8B08336D
:108280009AB24F4B1A800023BB83FB8B05337B8351
:1082900009E07B8B464AD35C9AB2BB8B1344BB8309
:1082A0007B8B01337B837A8BFB8BFF339A42F0DD30
:1082B000FB8B03333E4AD35C9AB2BB8B1344BB8324
:1082C000BB8BDBB2002B21D00023BB83FB8B0533A0
:1082D0007B8309E07B8B364AD35C9AB2BB8B134419
:1082E000BB837B8B01337B837A8BFB8BFF339A427F
:1082F000F0DDFB8B0333BA8BD2B25242D1B22C4A9F
:10830000D1542C4B05221A700CF00EFB0023BB83BA
:10831000FB8B7B8309E07B8B254AD35C9AB2BB8BBA
:108320001344BB837B8B01337B837A8BFB8B0433BE
:108330009A42F0DDBB8BDBB2002B20D00023BB8345
:10834000FB8B7B8309E07B8B194AD35C9AB2BB8B96
:108350001344BB837B8B01337B837A8BFB8B03338F
:108360009A42F0DDFB8B0433BA8BD2B25242D1B2C7
:108370000F4AD1540F4B05221A700CF0D5FAFB8B23
:1083800001330B4AD35C5BB2002B0ADBFB8B02335D
:10839000074AD35C9AB2FB8B13449BB20533FB8331
:1083A00060E600BF012318462437BD4690BD00BFDC
:1083B000F4030020EC030020E0030020EA03002087
:1083C000E203002080B584B000AFF860B9603B6084
:1083D0001346FB803B7E002B40F0B580FB688D4A46
:1083E000934249D1BB681B881A46FB88D31A8A4A34
:1083F00032F8133003F00103002B10D1BB681B8847
:108400001A46FB88D31A844A32F8133003F0020369
:10841000002B2DD0814B1B78DBB2002B28D0BB6802
:108420001B881A46FB88D31A7B4A32F8133003F4B0
:108430008063002B09D1BB681B881A46FB88D31ABE
:10844000774AD25C3B681A7067E0BB681B881A46A3
:10845000FB88D31A734A52F82330BA68128811463F
:10846000FA888A1A7049895C3A7E3868984754E0DD
:108470003B6800221A7050E0FB686C4A934203D0BC
:10848000FB686B4A934248D1BB681B881A46FB883D
:10849000D31A614A32F8133003F02003002B10D1B5
:1084A000BB681B881A46FB88D31A5B4A32F8133024
:1084B00003F04003002B2DD0584B1B78DBB2002B70
:1084C00028D0BB681B881A46FB88D31A524A32F858
:1084D000133003F48063002B09D1BB681B881A4654
:1084E000FB88D31A4E4AD25C3B681A7015E0BB6811
:1084F0001B881A46FB88D31A4A4A52F82330BA68B6
:1085000012881146FA888A1A4749895C3A7E386887
:10851000984702E03B6800221A70BB681B881A4625
:10852000FB88D31A3C4A32F8133003F40063002B63
:1085300007D0BB681B88013B9AB2BB681A80002336
:1085400073E1012371E13B7E022B40F0EE80FB687A
:10855000304A934270D1BB681B881A46FB88D31AF5
:108560002D4A32F8133003F00403002B29D1BB68E5
:108570001B881A46FB88D31A274A32F8133003F0B7
:108580000803002B04D0254B1B78DBB2002B18D13D
:10859000BB681B881A46FB88D31A1F4A32F813306F
:1085A00003F01003002B00F0AA801C4B1B78DBB2F9
:1085B000002B00F0A4801F4B1B78DBB2002B40F097
:1085C0009E80BB681B881A46FB88D31A124A32F871
:1085D000133003F48063002B09D1BB681B881A4653
:1085E000FB88D31A3A6811780D4AD15487E0BB68EA
:1085F0001B881A46FB88D31A0A4A52F82330BA68F5
:1086000012881146FA888A1A0749895C3A7E3868C6
:10861000984774E06C020020F4B900206202002048
:10862000ECBE0020C4B3002034BF0020A400002012
:10863000FC02002044010020FB687E4A934203D0E4
:10864000FB687D4A93425AD1BB681B881A46FB8857
:10865000D31A7A4A32F8133003F08003002B26D164
:10866000BB681B881A46FB88D31A744A32F8133049
:1086700003F48073002B04D0714B1B78DBB2002B0A
:1086800015D1BB681B881A46FB88D31A6B4A32F88F
:10869000133003F40073002B31D0694B1B78DBB22D
:1086A000002B2CD0674B1B78DBB2002B27D1BB688B
:1086B0001B881A46FB88D31A604A32F8133003F439
:1086C0008063002B09D1BB681B881A46FB88D31A2C
:1086D0003A6811785C4AD15411E0BB681B881A468D
:1086E000FB88D31A594A52F82330BA6812881146C7
:1086F000FA888A1A5649895C3A7E38689847BB6876
:108700001B881A46FB88D31A4C4A32F8133003F4FC
:108710000063002B07D0BB681B88013B9AB2BB6883
:108720001A80002381E001237FE03B7E032B7BD175
:10873000FB68484A934236D1BB681B881A46FB88BF
:10874000D31A3E4A32F8133003F00403002B26D12B
:10875000BB681B881A46FB88D31A384A32F8133094
:1087600003F00803002B04D0354B1B78DBB2002B41
:1087700015D1BB681B881A46FB88D31A2F4A32F8DA
:10878000133003F01003002B0BD02D4B1B78DBB202
:10879000002B06D02B4B1B78DBB2002B01D1012321
:1087A00043E0002341E0FB68224A934203D0FB6888
:1087B000214A934236D1BB681B881A46FB88D31ADC
:1087C0001E4A32F8133003F08003002B26D1BB6819
:1087D0001B881A46FB88D31A184A32F8133003F460
:1087E0008073002B04D0164B1B78DBB2002B15D105
:1087F000BB681B881A46FB88D31A104A32F813301C
:1088000003F40073002B0BD00D4B1B78DBB2002B55
:1088100006D00C4B1B78DBB2002B01D1012304E006
:10882000002302E0002300E0002318461037BD4675
:1088300080BD00BFA4000020FC020020F4B900208D
:108840006202002044010020ECBE0020C4B30020DE
:1088500034BF00206C02002080B584B000AFF86007
:10886000B9603B601346FB803B7E002B40F0B58037
:10887000FB688D4A934249D1BB681B881A46FB8826
:10888000D31A8A4A32F8133003F00103002B10D1B7
:10889000BB681B881A46FB88D31A844A32F8133007
:1088A00003F00203002B2DD0814B1B78DBB2002B91
:1088B00028D0BB681B881A46FB88D31A7B4A32F83B
:1088C000133003F48063002B09D1BB681B881A4660
:1088D000FB88D31A774AD25C3B681A7067E0BB68A2
:1088E0001B881A46FB88D31A734A52F82330BA6899
:1088F00012881146FA888A1A7049895C3A7E38686B
:10890000984754E03B6800221A7050E0FB686C4ABC
:10891000934203D0FB686B4A934248D1BB681B88E3
:108920001A46FB88D31A614A32F8133003F0200349
:10893000002B10D1BB681B881A46FB88D31A5B4AF0
:1089400032F8133003F04003002B2DD0584B1B7826
:10895000DBB2002B28D0BB681B881A46FB88D31AD1
:10896000524A32F8133003F48063002B09D1BB68FC
:108970001B881A46FB88D31A4E4AD25C3B681A7091
:1089800015E0BB681B881A46FB88D31A4A4A52F87E
:108990002330BA6812881146FA888A1A4749895CD6
:1089A0003A7E3868984702E03B6800221A70BB683C
:1089B0001B881A46FB88D31A3C4A32F8133003F45A
:1089C0000063002B07D0BB681B88013B9AB2BB68D1
:1089D0001A80002373E1012371E13B7E022B40F0FA
:1089E000EE80FB68304A934270D1BB681B881A4600
:1089F000FB88D31A2D4A32F8133003F00403002BFE
:108A000029D1BB681B881A46FB88D31A274A32F83B
:108A1000133003F00803002B04D0254B1B78DBB286
:108A2000002B18D1BB681B881A46FB88D31A1F4A33
:108A300032F8133003F01003002B00F0AA801C4B17
:108A40001B78DBB2002B00F0A4801F4B1B78DBB23D
:108A5000002B40F09E80BB681B881A46FB88D31A07
:108A6000124A32F8133003F48063002B09D1BB683B
:108A70001B881A46FB88D31A3A6811780D4AD154DC
:108A800087E0BB681B881A46FB88D31A0A4A52F84B
:108A90002330BA6812881146FA888A1A0749895C15
:108AA0003A7E3868984774E06C02002054B9002080
:108AB00062020020FCBD002084B200204CBE0020D9
:108AC000A4000020FC02002044010020FB687E4A34
:108AD000934203D0FB687D4A93425AD1BB681B88FE
:108AE0001A46FB88D31A7A4A32F8133003F080030F
:108AF000002B26D1BB681B881A46FB88D31A744A00
:108B000032F8133003F48073002B04D0714B1B78C0
:108B1000DBB2002B15D1BB681B881A46FB88D31A21
:108B20006B4A32F8133003F40073002B31D0694BD9
:108B30001B78DBB2002B2CD0674B1B78DBB2002BF1
:108B400027D1BB681B881A46FB88D31A604A32F8C3
:108B5000133003F48063002B09D1BB681B881A46CD
:108B6000FB88D31A3A6811785C4AD15411E0BB688B
:108B70001B881A46FB88D31A594A52F82330BA6820
:108B800012881146FA888A1A5649895C3A7E3868F2
:108B90009847BB681B881A46FB88D31A4C4A32F8A0
:108BA000133003F40063002B07D0BB681B88013B24
:108BB0009AB2BB681A80002381E001237FE03B7EEC
:108BC000032B7BD1FB68484A934236D1BB681B8894
:108BD0001A46FB88D31A3E4A32F8133003F00403D6
:108BE000002B26D1BB681B881A46FB88D31A384A4B
:108BF00032F8133003F00803002B04D0354B1B78F8
:108C0000DBB2002B15D1BB681B881A46FB88D31A30
:108C10002F4A32F8133003F01003002B0BD02D4BEA
:108C20001B78DBB2002B06D02B4B1B78DBB2002B62
:108C300001D1012343E0002341E0FB68224A934233
:108C400003D0FB68214A934236D1BB681B881A4681
:108C5000FB88D31A1E4A32F8133003F08003002B2E
:108C600026D1BB681B881A46FB88D31A184A32F8EB
:108C7000133003F48073002B04D0164B1B78DBB247
:108C8000002B15D1BB681B881A46FB88D31A104AE3
:108C900032F8133003F40073002B0BD00D4B1B780C
:108CA000DBB2002B06D00C4B1B78DBB2002B01D1C2
:108CB000012304E0002302E0002300E00023184623
:108CC0001037BD4680BD00BFA4000020FC0200207C
:108CD00054B900206202002044010020FCBD0020A5
:108CE00084B200204CBE00206C02002080B584B00D
:108CF00000AFF860B9603B601346FB803B7E002B01
:108D000040F0B580FB688D4A934249D1BB681B880F
:108D10001A46FB88D31A8A4A32F8133003F001034B
:108D2000002B10D1BB681B881A46FB88D31A844AD3
:108D300032F8133003F00203002B2DD0814B1B7847
:108D4000DBB2002B28D0BB681B881A46FB88D31ADD
:108D50007B4A32F8133003F48063002B09D1BB68DF
:108D60001B881A46FB88D31A774AD25C3B681A7074
:108D700067E0BB681B881A46FB88D31A734A52F80F
:108D80002330BA6812881146FA888A1A7049895CB9
:108D90003A7E3868984754E03B6800221A7050E0E9
:108DA000FB686C4A934203D0FB686B4A934248D1FC
:108DB000BB681B881A46FB88D31A614A32F8133005
:108DC00003F02003002B10D1BB681B881A46FB88D8
:108DD000D31A5B4A32F8133003F04003002B2DD036
:108DE000584B1B78DBB2002B28D0BB681B881A4677
:108DF000FB88D31A524A32F8133003F48063002BF5
:108E000009D1BB681B881A46FB88D31A4E4AD25C2C
:108E10003B681A7015E0BB681B881A46FB88D31A9A
:108E20004A4A52F82330BA6812881146FA888A1AD8
:108E30004749895C3A7E3868984702E03B680022DF
:108E40001A70BB681B881A46FB88D31A3C4A32F852
:108E5000133003F40063002B07D0BB681B88013B71
:108E60009AB2BB681A80002373E1012371E13B7E53
:108E7000022B40F0EE80FB68304A934270D1BB6811
:108E80001B881A46FB88D31A2D4A32F8133003F098
:108E90000403002B29D1BB681B881A46FB88D31A10
:108EA000274A32F8133003F00803002B04D0254B77
:108EB0001B78DBB2002B18D1BB681B881A46FB88D5
:108EC000D31A1F4A32F8133003F01003002B00F0BE
:108ED000AA801C4B1B78DBB2002B00F0A4801F4B38
:108EE0001B78DBB2002B40F09E80BB681B881A46C3
:108EF000FB88D31A124A32F8133003F48063002B34
:108F000009D1BB681B881A46FB88D31A3A681178C6
:108F10000D4AD15487E0BB681B881A46FB88D31AD8
:108F20000A4A52F82330BA6812881146FA888A1A17
:108F30000749895C3A7E3868984774E06C020020E3
:108F4000849C002046010020B0AE00203487002021
:108F5000F8AF0020A4000020FC0200204401002003
:108F6000FB687E4A934203D0FB687D4A93425AD104
:108F7000BB681B881A46FB88D31A7A4A32F813302A
:108F800003F08003002B26D1BB681B881A46FB88A0
:108F9000D31A744A32F8133003F48073002B04D0D0
:108FA000714B1B78DBB2002B15D1BB681B881A46AE
:108FB000FB88D31A6B4A32F8133003F40073002B8A
:108FC00031D0694B1B78DBB2002B2CD0674B1B7860
:108FD000DBB2002B27D1BB681B881A46FB88D31A4B
:108FE000604A32F8133003F48063002B09D1BB6868
:108FF0001B881A46FB88D31A3A6811785C4AD15408
:1090000011E0BB681B881A46FB88D31A594A52F8EC
:109010002330BA6812881146FA888A1A5649895C40
:109020003A7E38689847BB681B881A46FB88D31A73
:109030004C4A32F8133003F40063002B07D0BB68AE
:109040001B88013B9AB2BB681A80002381E0012390
:109050007FE03B7E032B7BD1FB68484A934236D1AD
:10906000BB681B881A46FB88D31A3E4A32F8133075
:1090700003F00403002B26D1BB681B881A46FB882B
:10908000D31A384A32F8133003F00803002B04D007
:10909000354B1B78DBB2002B15D1BB681B881A46F9
:1090A000FB88D31A2F4A32F8133003F01003002B39
:1090B0000BD02D4B1B78DBB2002B06D02B4B1B7833
:1090C000DBB2002B01D1012343E0002341E0FB6828
:1090D000224A934203D0FB68214A934236D1BB68AF
:1090E0001B881A46FB88D31A1E4A32F8133003F045
:1090F0008003002B26D1BB681B881A46FB88D31A35
:10910000184A32F8133003F48073002B04D0164B46
:109110001B78DBB2002B15D1BB681B881A46FB8875
